{
  "contractName": "SendEther",
  "abi": [
    {
      "stateMutability": "payable",
      "type": "receive",
      "payable": true
    },
    {
      "inputs": [
        {
          "internalType": "uint256",
          "name": "transferAmount",
          "type": "uint256"
        },
        {
          "internalType": "address",
          "name": "receiverAddress",
          "type": "address"
        }
      ],
      "name": "sendEthers",
      "outputs": [],
      "stateMutability": "payable",
      "type": "function",
      "payable": true
    }
  ],
  "bytecode": "0x608060405234801561001057600080fd5b506102bd806100206000396000f3fe6080604052600436106100225760003560e01c8063445021581461002e57610029565b3661002957005b600080fd5b61007a6004803603604081101561004457600080fd5b8101908080359060200190929190803573ffffffffffffffffffffffffffffffffffffffff16906020019092919050505061007c565b005b600082116100d5576040517f08c379a000000000000000000000000000000000000000000000000000000000815260040180806020018281038252602f815260200180610234602f913960400191505060405180910390fd5b813373ffffffffffffffffffffffffffffffffffffffff16311015610145576040517f08c379a00000000000000000000000000000000000000000000000000000000081526004018080602001828103825260258152602001806102636025913960400191505060405180910390fd5b600073ffffffffffffffffffffffffffffffffffffffff168173ffffffffffffffffffffffffffffffffffffffff1614156101e8576040517f08c379a00000000000000000000000000000000000000000000000000000000081526004018080602001828103825260188152602001807f496e76616c696420616464726573732070726f7669646564000000000000000081525060200191505060405180910390fd5b8073ffffffffffffffffffffffffffffffffffffffff166108fc839081150290604051600060405180830381858888f1935050505015801561022e573d6000803e3d6000fd5b50505056fe416d6f756e7420746f206265207472616e736665726564206d7573742062652067726561746572207468617420302e496e737566666963696e65742062616c616e636520696e20796f7572206163636f756e7421a26469706673582212208102adccfdac11fe6528a3c3a58d63b0b2b975d102ccd526b8b3e85e55460c6b64736f6c63430006060033",
  "immutableReferences": {},
  "source": "// SPDX-License-Identifier: GPL-3.0\n\npragma solidity >=0.6.0 <=0.9.0;\n\ncontract SendEther {\n    function sendEthers(\n        uint256 transferAmount,\n        address receiverAddress\n    ) external payable {\n        require(\n            transferAmount > 0,\n            \"Amount to be transfered must be greater that 0.\"\n        );\n        require(\n            msg.sender.balance >= transferAmount,\n            \"Insufficinet balance in your account!\"\n        );\n        require(receiverAddress != address(0), \"Invalid address provided\");\n\n        payable(receiverAddress).transfer(transferAmount);\n    }\n\n    receive() external payable {}\n}\n",
  "sourcePath": "C:\\Complete Blockchain Development Bootcammp\\EthSender\\Ethsender Smart Contract\\contracts\\SendEther.sol",
  "compiler": {
    "name": "solc",
    "version": "0.6.6+commit.6c089d02.Emscripten.clang"
  },
  "schemaVersion": "3.4.14",
  "updatedAt": "2023-07-31T12:34:38.862Z",
  "networkType": "ethereum",
  "devdoc": {
    "methods": {}
  },
  "userdoc": {
    "methods": {}
  }
}