{
  "contractName": "SendEther",
  "abi": [
    {
      "inputs": [],
      "name": "totalBalance",
      "outputs": [
        {
          "internalType": "uint256",
          "name": "",
          "type": "uint256"
        }
      ],
      "stateMutability": "view",
      "type": "function",
      "constant": true
    },
    {
      "stateMutability": "payable",
      "type": "receive",
      "payable": true
    },
    {
      "inputs": [],
      "name": "receiveEthers",
      "outputs": [],
      "stateMutability": "payable",
      "type": "function",
      "payable": true
    },
    {
      "inputs": [
        {
          "internalType": "uint256",
          "name": "transferAmount",
          "type": "uint256"
        },
        {
          "internalType": "address",
          "name": "receiverAddress",
          "type": "address"
        }
      ],
      "name": "sendEthers",
      "outputs": [],
      "stateMutability": "payable",
      "type": "function",
      "payable": true
    }
  ],
  "bytecode": "0x608060405234801561001057600080fd5b5061031f806100206000396000f3fe6080604052600436106100385760003560e01c806338314aac14610044578063445021581461004e578063ad7a672f1461009c5761003f565b3661003f57005b600080fd5b61004c6100c7565b005b61009a6004803603604081101561006457600080fd5b8101908080359060200190929190803573ffffffffffffffffffffffffffffffffffffffff1690602001909291905050506100d8565b005b3480156100a857600080fd5b506100b161028f565b6040518082815260200191505060405180910390f35b346000808282540192505081905550565b60008211610131576040517f08c379a000000000000000000000000000000000000000000000000000000000815260040180806020018281038252602f815260200180610296602f913960400191505060405180910390fd5b813373ffffffffffffffffffffffffffffffffffffffff163110156101a1576040517f08c379a00000000000000000000000000000000000000000000000000000000081526004018080602001828103825260258152602001806102c56025913960400191505060405180910390fd5b600073ffffffffffffffffffffffffffffffffffffffff168173ffffffffffffffffffffffffffffffffffffffff161415610244576040517f08c379a00000000000000000000000000000000000000000000000000000000081526004018080602001828103825260188152602001807f496e76616c696420616464726573732070726f7669646564000000000000000081525060200191505060405180910390fd5b8073ffffffffffffffffffffffffffffffffffffffff166108fc839081150290604051600060405180830381858888f1935050505015801561028a573d6000803e3d6000fd5b505050565b6000548156fe416d6f756e7420746f206265207472616e736665726564206d7573742062652067726561746572207468617420302e496e737566666963696e65742062616c616e636520696e20796f7572206163636f756e7421a264697066735822122057d65e3d62f544a1fa1fd20f9789b37f1d541a9639a5ab623a19314a81a92fbb64736f6c63430006060033",
  "immutableReferences": {},
  "source": "// SPDX-License-Identifier: GPL-3.0\r\n\r\npragma solidity >=0.6.0 <=0.9.0;\r\n\r\ncontract SendEther {\r\n    uint public totalBalance;\r\n\r\n    function receiveEthers() external payable {\r\n        totalBalance += msg.value;\r\n    }\r\n\r\n    function sendEthers(\r\n        uint256 transferAmount,\r\n        address receiverAddress\r\n    ) external payable {\r\n        require(\r\n            transferAmount > 0,\r\n            \"Amount to be transfered must be greater that 0.\"\r\n        );\r\n        require(\r\n            msg.sender.balance >= transferAmount,\r\n            \"Insufficinet balance in your account!\"\r\n        );\r\n        require(receiverAddress != address(0), \"Invalid address provided\");\r\n\r\n        payable(receiverAddress).transfer(transferAmount);\r\n    }\r\n\r\n    receive() external payable {}\r\n}\r\n",
  "sourcePath": "C:\\Complete Blockchain Development Bootcammp\\EthSender\\Ethsender Smart Contract\\contracts\\SendEther.sol",
  "compiler": {
    "name": "solc",
    "version": "0.6.6+commit.6c089d02.Emscripten.clang"
  },
  "schemaVersion": "3.4.14",
  "updatedAt": "2023-08-02T19:03:11.030Z",
  "networkType": "ethereum",
  "devdoc": {
    "methods": {}
  },
  "userdoc": {
    "methods": {}
  }
}